:100000000C943A000C9457000C9457000C94570031
:100010000C9457000C9457000C9457000C94570004
:100020000C9457000C9457000C9457000C945700F4
:100030000C9457000C9457000C9457000C945700E4
:100040000C9457000C9457000C9457000C945700D4
:100050000C9457000C9457000C9457000C945700C4
:100060000C9457000C9457000C9457000C945700B4
:100070000C94570011241FBECFEFD4E0DEBFCDBFDC
:1000800011E0A0E0B1E0E8E1F4E002C005900D92DB
:10009000AA30B107D9F721E0AAE0B1E001C01D9272
:1000A000A631B207E1F70E94D2010C940A020C9427
:1000B00000006230710519F170F46130710559F575
:1000C000FC01FF2724A1392F3095922F932394A36D
:1000D00085A183231DC06330710541F06430710533
:1000E000D1F4FC01FF2784A1892B0FC0FC01FF275D
:1000F00084A1892B84A385A19095892309C0FC0143
:10010000FF2784A1292F2095822384A385A1892BF1
:1001100085A381E0089580E00895E82FF0E0EE0FD8
:10012000FF1FE65FFE4F8081882321F0918181E0EF
:10013000892702C080E090E081700895E82FF0E008
:10014000EE0FFF1FE65FFE4F8081811102C08181AB
:1001500002C080E090E081700895E82FF0E0EE0F9B
:10016000FF1FE65FFE4F80810895E82FF0E0EE0F5D
:10017000FF1FE65FFE4F908181E0892708957F92FF
:100180008F929F92AF92BF92CF92DF92EF92FF92A7
:100190000F931F93CF93DF93CAE0D1E050E0C52EB9
:1001A00051E0D52E66E0762E88818983F601019193
:1001B00011916F015801BB24F50124A1E12EFF2408
:1001C00085A190E08E219F2130E02E213F21232B1D
:1001D00031F0892B51F433E0832E912C0DC0892B03
:1001E00041F488248394912C07C094E0892E912CAB
:1001F00003C082E0882E912C64E070E0C8010E9468
:10020000590062E070E0C8010E945900872D8A956C
:10021000F1F7F50183A190E0E822F92281E0EF28CF
:1002200009F080E08883B401C8010E945900229639
:10023000F1E0C431DF0709F0B7CFDF91CF911F9113
:100240000F91FF90EF90DF90CF90BF90AF909F9075
:100250008F907F900895089581110DC080911401B1
:10026000882329F09091150181E0892702C080E060
:1002700090E08170089580E0089581110BC0809115
:100280001401811103C08091150102C080E090E04B
:100290008170089580E00895811103C08091140158
:1002A000089580E00895811105C09091140181E0C6
:1002B0008927089580E00895E4E1F1E08081818359
:1002C00089B1881F8827881F8083089557985F9871
:1002D000089580E0089580E0089580E0089581E029
:1002E000089580E00895089580E00895811105C083
:1002F000662311F0429A0895429808953A9A429AD4
:100300000895E1E6F0E080E880831082A89584B744
:10031000877F84BFE0E6F0E080818861808310827F
:100320000895CF930E94BF0082E00E948D0080E07C
:100330000E948D00882311F0C0E501C0C2E581E074
:100340000E948D008111C3E58C2FCF9108958235D5
:1003500021F481E0633561F40CC0833521F481E040
:10036000603531F406C0803519F481E0623509F05A
:1003700080E00895823521F481E0603561F40CC09D
:10038000833521F481E0623531F406C0803519F4FB
:1003900081E0633509F080E0089591E0861390E0F4
:1003A000892F08950E9481010E942B010E946601FD
:1003B0000E9474010E947E01C0E060E080E00E9423
:1003C000760180E00E943D01882321F08C2F0E945D
:1003D000710108C0C111FACF0E949101C82F0E947B
:1003E0005C01EFCF0E9469018823E1F30E946B0159
:1003F000682F8C2F0E94A701882321F061E080E004
:100400000E94760180E00E943D018111D6CF0E94BA
:080410005C01F8CFF894FFCF66
:0A041800038003400320008003105E
:00000001FF
